{
  "_format": "hh-sol-artifact-1",
  "contractName": "HouseRegistryExtVer2",
  "sourceName": "contracts/HouseRegistryExtVer2.sol",
  "abi": [
    {
      "anonymous": false,
      "inputs": [
        {
          "indexed": false,
          "internalType": "string",
          "name": "message",
          "type": "string"
        }
      ],
      "name": "DelistHouse",
      "type": "event"
    },
    {
      "anonymous": false,
      "inputs": [
        {
          "indexed": false,
          "internalType": "uint8",
          "name": "version",
          "type": "uint8"
        }
      ],
      "name": "Initialized",
      "type": "event"
    },
    {
      "anonymous": false,
      "inputs": [
        {
          "indexed": false,
          "internalType": "address",
          "name": "addr",
          "type": "address"
        }
      ],
      "name": "NewFactAddress",
      "type": "event"
    },
    {
      "anonymous": false,
      "inputs": [
        {
          "indexed": false,
          "internalType": "uint256",
          "name": "id",
          "type": "uint256"
        },
        {
          "indexed": false,
          "internalType": "address",
          "name": "seller",
          "type": "address"
        },
        {
          "indexed": false,
          "internalType": "uint256",
          "name": "costETH",
          "type": "uint256"
        },
        {
          "indexed": false,
          "internalType": "uint256",
          "name": "costDAI",
          "type": "uint256"
        },
        {
          "indexed": false,
          "internalType": "string",
          "name": "addrHouse",
          "type": "string"
        }
      ],
      "name": "NewHouse",
      "type": "event"
    },
    {
      "anonymous": false,
      "inputs": [
        {
          "indexed": false,
          "internalType": "address",
          "name": "addr",
          "type": "address"
        }
      ],
      "name": "NewTokenAddress",
      "type": "event"
    },
    {
      "inputs": [
        {
          "internalType": "uint256",
          "name": "",
          "type": "uint256"
        }
      ],
      "name": "addressHouseToken",
      "outputs": [
        {
          "internalType": "address",
          "name": "",
          "type": "address"
        }
      ],
      "stateMutability": "view",
      "type": "function"
    },
    {
      "inputs": [
        {
          "internalType": "uint256",
          "name": "_idHouse",
          "type": "uint256"
        }
      ],
      "name": "buyNFTHouseWithDAI",
      "outputs": [],
      "stateMutability": "payable",
      "type": "function"
    },
    {
      "inputs": [
        {
          "internalType": "uint256",
          "name": "_idHouse",
          "type": "uint256"
        }
      ],
      "name": "buyNFTHouseWithETH",
      "outputs": [],
      "stateMutability": "payable",
      "type": "function"
    },
    {
      "inputs": [
        {
          "internalType": "uint256",
          "name": "_idHouse",
          "type": "uint256"
        }
      ],
      "name": "delistHouse",
      "outputs": [
        {
          "internalType": "string",
          "name": "",
          "type": "string"
        }
      ],
      "stateMutability": "nonpayable",
      "type": "function"
    },
    {
      "inputs": [],
      "name": "factAddr",
      "outputs": [
        {
          "internalType": "address",
          "name": "",
          "type": "address"
        }
      ],
      "stateMutability": "view",
      "type": "function"
    },
    {
      "inputs": [],
      "name": "getExpensiveHouseIds",
      "outputs": [
        {
          "internalType": "uint256",
          "name": "",
          "type": "uint256"
        }
      ],
      "stateMutability": "view",
      "type": "function"
    },
    {
      "inputs": [
        {
          "internalType": "uint256",
          "name": "",
          "type": "uint256"
        }
      ],
      "name": "houseIndex",
      "outputs": [
        {
          "internalType": "uint256",
          "name": "",
          "type": "uint256"
        }
      ],
      "stateMutability": "view",
      "type": "function"
    },
    {
      "inputs": [],
      "name": "idNumber",
      "outputs": [
        {
          "internalType": "uint256",
          "name": "",
          "type": "uint256"
        }
      ],
      "stateMutability": "view",
      "type": "function"
    },
    {
      "inputs": [],
      "name": "initialize",
      "outputs": [],
      "stateMutability": "nonpayable",
      "type": "function"
    },
    {
      "inputs": [
        {
          "internalType": "uint256",
          "name": "_costETH",
          "type": "uint256"
        },
        {
          "internalType": "uint256",
          "name": "_costDAI",
          "type": "uint256"
        },
        {
          "internalType": "uint256",
          "name": "_squareHouse",
          "type": "uint256"
        },
        {
          "internalType": "address",
          "name": "_seller",
          "type": "address"
        },
        {
          "internalType": "string",
          "name": "_addressHouse",
          "type": "string"
        }
      ],
      "name": "listHouse",
      "outputs": [
        {
          "internalType": "uint256",
          "name": "",
          "type": "uint256"
        }
      ],
      "stateMutability": "nonpayable",
      "type": "function"
    },
    {
      "inputs": [
        {
          "internalType": "uint256",
          "name": "_costETH",
          "type": "uint256"
        },
        {
          "internalType": "uint256",
          "name": "_costDAI",
          "type": "uint256"
        },
        {
          "internalType": "uint256",
          "name": "_squareHouse",
          "type": "uint256"
        },
        {
          "internalType": "string",
          "name": "_addressHouse",
          "type": "string"
        }
      ],
      "name": "listHouseSimple",
      "outputs": [],
      "stateMutability": "nonpayable",
      "type": "function"
    },
    {
      "inputs": [],
      "name": "owner",
      "outputs": [
        {
          "internalType": "address",
          "name": "",
          "type": "address"
        }
      ],
      "stateMutability": "view",
      "type": "function"
    },
    {
      "inputs": [],
      "name": "readiness",
      "outputs": [
        {
          "internalType": "uint256",
          "name": "",
          "type": "uint256"
        }
      ],
      "stateMutability": "view",
      "type": "function"
    },
    {
      "inputs": [
        {
          "internalType": "address",
          "name": "_factAddr",
          "type": "address"
        }
      ],
      "name": "setAddrFact",
      "outputs": [],
      "stateMutability": "nonpayable",
      "type": "function"
    },
    {
      "inputs": [
        {
          "internalType": "address",
          "name": "_tokenAddr",
          "type": "address"
        }
      ],
      "name": "setAddrToken",
      "outputs": [],
      "stateMutability": "nonpayable",
      "type": "function"
    },
    {
      "inputs": [
        {
          "internalType": "address",
          "name": "",
          "type": "address"
        }
      ],
      "name": "timerRecharge",
      "outputs": [
        {
          "internalType": "uint256",
          "name": "",
          "type": "uint256"
        }
      ],
      "stateMutability": "view",
      "type": "function"
    },
    {
      "inputs": [],
      "name": "tokenAddr",
      "outputs": [
        {
          "internalType": "address",
          "name": "",
          "type": "address"
        }
      ],
      "stateMutability": "view",
      "type": "function"
    }
  ],
  "bytecode": "0x608060405234801561001057600080fd5b5061233e806100206000396000f3fe6080604052600436106100fe5760003560e01c80638129fc1c11610095578063a5bf4d0911610064578063a5bf4d091461032a578063c4c355ec14610346578063e2101f7714610371578063ecd5f3d91461039a578063fdec9c9f146103d7576100fe565b80638129fc1c146102805780638da5cb5b1461029757806396e28374146102c2578063a1e36631146102ff576100fe565b80633f83ea3b116100d15780633f83ea3b146101c4578063443db9a8146101ef5780635fbe4d1d146102185780637f8d071314610243576100fe565b80631916116114610103578063232572fc1461014057806333a129791461016b5780633c3b0b4a14610187575b600080fd5b34801561010f57600080fd5b5061012a600480360381019061012591906119a1565b610400565b6040516101379190611dca565b60405180910390f35b34801561014c57600080fd5b5061015561067d565b6040516101629190611c7b565b60405180910390f35b6101856004803603810190610180919061194f565b6106a3565b005b34801561019357600080fd5b506101ae60048036038101906101a9919061194f565b6109f9565b6040516101bb9190611ce8565b60405180910390f35b3480156101d057600080fd5b506101d9610b98565b6040516101e69190611dca565b60405180910390f35b3480156101fb57600080fd5b50610216600480360381019061021191906118d4565b610b9e565b005b34801561022457600080fd5b5061022d610ccb565b60405161023a9190611c7b565b60405180910390f35b34801561024f57600080fd5b5061026a6004803603810190610265919061194f565b610cf1565b6040516102779190611dca565b60405180910390f35b34801561028c57600080fd5b50610295610d15565b005b3480156102a357600080fd5b506102ac610df6565b6040516102b99190611c7b565b60405180910390f35b3480156102ce57600080fd5b506102e960048036038101906102e491906118d4565b610e1c565b6040516102f69190611dca565b60405180910390f35b34801561030b57600080fd5b50610314610e34565b6040516103219190611dca565b60405180910390f35b610344600480360381019061033f919061194f565b61116d565b005b34801561035257600080fd5b5061035b611458565b6040516103689190611dca565b60405180910390f35b34801561037d57600080fd5b50610398600480360381019061039391906118d4565b61145e565b005b3480156103a657600080fd5b506103c160048036038101906103bc919061194f565b61158b565b6040516103ce9190611c7b565b60405180910390f35b3480156103e357600080fd5b506103fe60048036038101906103f99190611a30565b6115be565b005b6000808611806104105750600084115b61044f576040517f08c379a000000000000000000000000000000000000000000000000000000000815260040161044690611daa565b60405180910390fd5b600061045c8585856116a5565b9050600073ffffffffffffffffffffffffffffffffffffffff166007600083815260200190815260200160002060009054906101000a900473ffffffffffffffffffffffffffffffffffffffff1673ffffffffffffffffffffffffffffffffffffffff1614610500576040517f08c379a00000000000000000000000000000000000000000000000000000000081526004016104f790611d2a565b60405180910390fd5b600460009054906101000a900473ffffffffffffffffffffffffffffffffffffffff1673ffffffffffffffffffffffffffffffffffffffff1663c453e7d08289898989896040518763ffffffff1660e01b815260040161056596959493929190611e3f565b602060405180830381600087803b15801561057f57600080fd5b505af1158015610593573d6000803e3d6000fd5b505050506040513d601f19601f820116820180604052508101906105b791906118fd565b6007600083815260200190815260200160002060006101000a81548173ffffffffffffffffffffffffffffffffffffffff021916908373ffffffffffffffffffffffffffffffffffffffff16021790555060068190806001815401808255809150506001900390600052602060002001600090919091909150557feeda2e8e92046b3a9e502b938d5bb1d074213a26a15b43f91f062c2166aa2c418185898987604051610668959493929190611de5565b60405180910390a18091505095945050505050565b600460009054906101000a900473ffffffffffffffffffffffffffffffffffffffff1681565b600073ffffffffffffffffffffffffffffffffffffffff166007600083815260200190815260200160002060009054906101000a900473ffffffffffffffffffffffffffffffffffffffff1673ffffffffffffffffffffffffffffffffffffffff161415610746576040517f08c379a000000000000000000000000000000000000000000000000000000000815260040161073d90611d8a565b60405180910390fd5b600360009054906101000a900473ffffffffffffffffffffffffffffffffffffffff1673ffffffffffffffffffffffffffffffffffffffff166323b872dd336007600085815260200190815260200160002060009054906101000a900473ffffffffffffffffffffffffffffffffffffffff1673ffffffffffffffffffffffffffffffffffffffff166308551a536040518163ffffffff1660e01b815260040160206040518083038186803b1580156107fe57600080fd5b505afa158015610812573d6000803e3d6000fd5b505050506040513d601f19601f8201168201806040525081019061083691906118fd565b6007600086815260200190815260200160002060009054906101000a900473ffffffffffffffffffffffffffffffffffffffff1673ffffffffffffffffffffffffffffffffffffffff16631d76510a6040518163ffffffff1660e01b815260040160206040518083038186803b1580156108af57600080fd5b505afa1580156108c3573d6000803e3d6000fd5b505050506040513d601f19601f820116820180604052508101906108e79190611978565b6040518463ffffffff1660e01b815260040161090593929190611c96565b602060405180830381600087803b15801561091f57600080fd5b505af1158015610933573d6000803e3d6000fd5b505050506040513d601f19601f820116820180604052508101906109579190611926565b506007600082815260200190815260200160002060009054906101000a900473ffffffffffffffffffffffffffffffffffffffff1673ffffffffffffffffffffffffffffffffffffffff1663a3f09ad6336040518263ffffffff1660e01b81526004016109c49190611c7b565b600060405180830381600087803b1580156109de57600080fd5b505af11580156109f2573d6000803e3d6000fd5b5050505050565b6060600560009054906101000a900473ffffffffffffffffffffffffffffffffffffffff1673ffffffffffffffffffffffffffffffffffffffff163373ffffffffffffffffffffffffffffffffffffffff1614610a8b576040517f08c379a0000000000000000000000000000000000000000000000000000000008152600401610a8290611d0a565b60405180910390fd5b6007600083815260200190815260200160002060009054906101000a900473ffffffffffffffffffffffffffffffffffffffff1673ffffffffffffffffffffffffffffffffffffffff16636f374a126040518163ffffffff1660e01b8152600401600060405180830381600087803b158015610b0657600080fd5b505af1158015610b1a573d6000803e3d6000fd5b5050505060006040518060400160405280600c81526020017f5375636365737366756c6c79000000000000000000000000000000000000000081525090507fd41c2e1e8df9812acbcce3f1165e4bc8bcb4a9bdf46b2a87dbe30a0c62db67ca81604051610b879190611ce8565b60405180910390a180915050919050565b60015481565b600560009054906101000a900473ffffffffffffffffffffffffffffffffffffffff1673ffffffffffffffffffffffffffffffffffffffff163373ffffffffffffffffffffffffffffffffffffffff1614610c2e576040517f08c379a0000000000000000000000000000000000000000000000000000000008152600401610c2590611d0a565b60405180910390fd5b80600460006101000a81548173ffffffffffffffffffffffffffffffffffffffff021916908373ffffffffffffffffffffffffffffffffffffffff1602179055507ff835e2e09c4ca2df19dfef83fe34d25ebd44e8072ff3bd7dbd3ba7e9f804fa38600460009054906101000a900473ffffffffffffffffffffffffffffffffffffffff16604051610cc09190611c7b565b60405180910390a150565b600360009054906101000a900473ffffffffffffffffffffffffffffffffffffffff1681565b60068181548110610d0157600080fd5b906000526020600020016000915090505481565b6000610d2160016116f0565b90508015610d45576001600060016101000a81548160ff0219169083151502179055505b33600560006101000a81548173ffffffffffffffffffffffffffffffffffffffff021916908373ffffffffffffffffffffffffffffffffffffffff1602179055506201869f600181905550620151806002819055508015610df35760008060016101000a81548160ff0219169083151502179055507f7f26b83ff96e1f2b6a682f133852f6798a09c465da95921460cefb38474024986001604051610dea9190611ccd565b60405180910390a15b50565b600560009054906101000a900473ffffffffffffffffffffffffffffffffffffffff1681565b60086020528060005260406000206000915090505481565b60008060008060005b60068054905081101561116357816007600060068481548110610e89577f4e487b7100000000000000000000000000000000000000000000000000000000600052603260045260246000fd5b9060005260206000200154815260200190815260200160002060009054906101000a900473ffffffffffffffffffffffffffffffffffffffff1673ffffffffffffffffffffffffffffffffffffffff16631d76510a6040518163ffffffff1660e01b815260040160206040518083038186803b158015610f0857600080fd5b505afa158015610f1c573d6000803e3d6000fd5b505050506040513d601f19601f82011682018060405250810190610f409190611978565b10611142576007600060068381548110610f83577f4e487b7100000000000000000000000000000000000000000000000000000000600052603260045260246000fd5b9060005260206000200154815260200190815260200160002060009054906101000a900473ffffffffffffffffffffffffffffffffffffffff1673ffffffffffffffffffffffffffffffffffffffff16639df016aa6040518163ffffffff1660e01b815260040160206040518083038186803b15801561100257600080fd5b505afa158015611016573d6000803e3d6000fd5b505050506040513d601f19601f8201168201806040525081019061103a9190611978565b9350600760006006838154811061107a577f4e487b7100000000000000000000000000000000000000000000000000000000600052603260045260246000fd5b9060005260206000200154815260200190815260200160002060009054906101000a900473ffffffffffffffffffffffffffffffffffffffff1673ffffffffffffffffffffffffffffffffffffffff16631d76510a6040518163ffffffff1660e01b815260040160206040518083038186803b1580156110f957600080fd5b505afa15801561110d573d6000803e3d6000fd5b505050506040513d601f19601f820116820180604052508101906111319190611978565b9150828061113e90612054565b9350505b828061114d90612054565b935050808061115b90612054565b915050610e3d565b5082935050505090565b600073ffffffffffffffffffffffffffffffffffffffff166007600083815260200190815260200160002060009054906101000a900473ffffffffffffffffffffffffffffffffffffffff1673ffffffffffffffffffffffffffffffffffffffff161415611210576040517f08c379a000000000000000000000000000000000000000000000000000000000815260040161120790611d8a565b60405180910390fd5b6007600082815260200190815260200160002060009054906101000a900473ffffffffffffffffffffffffffffffffffffffff1673ffffffffffffffffffffffffffffffffffffffff166308551a536040518163ffffffff1660e01b815260040160206040518083038186803b15801561128957600080fd5b505afa15801561129d573d6000803e3d6000fd5b505050506040513d601f19601f820116820180604052508101906112c191906118fd565b73ffffffffffffffffffffffffffffffffffffffff166108fc6007600084815260200190815260200160002060009054906101000a900473ffffffffffffffffffffffffffffffffffffffff1673ffffffffffffffffffffffffffffffffffffffff166391db3da56040518163ffffffff1660e01b815260040160206040518083038186803b15801561135357600080fd5b505afa158015611367573d6000803e3d6000fd5b505050506040513d601f19601f8201168201806040525081019061138b9190611978565b9081150290604051600060405180830381858888f193505050501580156113b6573d6000803e3d6000fd5b506007600082815260200190815260200160002060009054906101000a900473ffffffffffffffffffffffffffffffffffffffff1673ffffffffffffffffffffffffffffffffffffffff1663a3f09ad6336040518263ffffffff1660e01b81526004016114239190611c7b565b600060405180830381600087803b15801561143d57600080fd5b505af1158015611451573d6000803e3d6000fd5b5050505050565b60025481565b600560009054906101000a900473ffffffffffffffffffffffffffffffffffffffff1673ffffffffffffffffffffffffffffffffffffffff163373ffffffffffffffffffffffffffffffffffffffff16146114ee576040517f08c379a00000000000000000000000000000000000000000000000000000000081526004016114e590611d0a565b60405180910390fd5b80600360006101000a81548173ffffffffffffffffffffffffffffffffffffffff021916908373ffffffffffffffffffffffffffffffffffffffff1602179055507f575222f538e186dc2809b95211ac0723750593c65268bea60eb2d91616e9bcf0600360009054906101000a900473ffffffffffffffffffffffffffffffffffffffff166040516115809190611c7b565b60405180910390a150565b60076020528060005260406000206000915054906101000a900473ffffffffffffffffffffffffffffffffffffffff1681565b42600860003373ffffffffffffffffffffffffffffffffffffffff1673ffffffffffffffffffffffffffffffffffffffff168152602001908152602001600020541115611640576040517f08c379a000000000000000000000000000000000000000000000000000000000815260040161163790611d6a565b60405180910390fd5b61164d8484843385610400565b506002544261165c9190611f24565b600860003373ffffffffffffffffffffffffffffffffffffffff1673ffffffffffffffffffffffffffffffffffffffff1681526020019081526020016000208190555050505050565b6000806001548585856040516020016116c093929190611c42565b6040516020818303038152906040528051906020012060001c6116e391906120cb565b9050809150509392505050565b60008060019054906101000a900460ff16156117675760018260ff1614801561171f575061171d306117e0565b155b61175e576040517f08c379a000000000000000000000000000000000000000000000000000000000815260040161175590611d4a565b60405180910390fd5b600090506117db565b8160ff1660008054906101000a900460ff1660ff16106117bc576040517f08c379a00000000000000000000000000000000000000000000000000000000081526004016117b390611d4a565b60405180910390fd5b816000806101000a81548160ff021916908360ff160217905550600190505b919050565b6000808273ffffffffffffffffffffffffffffffffffffffff163b119050919050565b600061181661181184611ecc565b611ea7565b90508281526020810184848401111561182e57600080fd5b611839848285611fe1565b509392505050565b600081359050611850816122c3565b92915050565b600081519050611865816122c3565b92915050565b60008151905061187a816122da565b92915050565b600082601f83011261189157600080fd5b81356118a1848260208601611803565b91505092915050565b6000813590506118b9816122f1565b92915050565b6000815190506118ce816122f1565b92915050565b6000602082840312156118e657600080fd5b60006118f484828501611841565b91505092915050565b60006020828403121561190f57600080fd5b600061191d84828501611856565b91505092915050565b60006020828403121561193857600080fd5b60006119468482850161186b565b91505092915050565b60006020828403121561196157600080fd5b600061196f848285016118aa565b91505092915050565b60006020828403121561198a57600080fd5b6000611998848285016118bf565b91505092915050565b600080600080600060a086880312156119b957600080fd5b60006119c7888289016118aa565b95505060206119d8888289016118aa565b94505060406119e9888289016118aa565b93505060606119fa88828901611841565b925050608086013567ffffffffffffffff811115611a1757600080fd5b611a2388828901611880565b9150509295509295909350565b60008060008060808587031215611a4657600080fd5b6000611a54878288016118aa565b9450506020611a65878288016118aa565b9350506040611a76878288016118aa565b925050606085013567ffffffffffffffff811115611a9357600080fd5b611a9f87828801611880565b91505092959194509250565b611ab481611f7a565b82525050565b611acb611ac682611f7a565b61209d565b82525050565b611ada81611fcf565b82525050565b6000611aeb82611efd565b611af58185611f08565b9350611b05818560208601611ff0565b611b0e81612189565b840191505092915050565b6000611b2482611efd565b611b2e8185611f19565b9350611b3e818560208601611ff0565b80840191505092915050565b6000611b57601083611f08565b9150611b62826121a7565b602082019050919050565b6000611b7a601683611f08565b9150611b85826121d0565b602082019050919050565b6000611b9d602e83611f08565b9150611ba8826121f9565b604082019050919050565b6000611bc0600e83611f08565b9150611bcb82612248565b602082019050919050565b6000611be3600e83611f08565b9150611bee82612271565b602082019050919050565b6000611c06601d83611f08565b9150611c118261229a565b602082019050919050565b611c2581611fb8565b82525050565b611c3c611c3782611fb8565b6120c1565b82525050565b6000611c4e8286611c2b565b602082019150611c5e8285611aba565b601482019150611c6e8284611b19565b9150819050949350505050565b6000602082019050611c906000830184611aab565b92915050565b6000606082019050611cab6000830186611aab565b611cb86020830185611aab565b611cc56040830184611c1c565b949350505050565b6000602082019050611ce26000830184611ad1565b92915050565b60006020820190508181036000830152611d028184611ae0565b905092915050565b60006020820190508181036000830152611d2381611b4a565b9050919050565b60006020820190508181036000830152611d4381611b6d565b9050919050565b60006020820190508181036000830152611d6381611b90565b9050919050565b60006020820190508181036000830152611d8381611bb3565b9050919050565b60006020820190508181036000830152611da381611bd6565b9050919050565b60006020820190508181036000830152611dc381611bf9565b9050919050565b6000602082019050611ddf6000830184611c1c565b92915050565b600060a082019050611dfa6000830188611c1c565b611e076020830187611aab565b611e146040830186611c1c565b611e216060830185611c1c565b8181036080830152611e338184611ae0565b90509695505050505050565b600060c082019050611e546000830189611c1c565b611e616020830188611c1c565b611e6e6040830187611c1c565b611e7b6060830186611c1c565b611e886080830185611aab565b81810360a0830152611e9a8184611ae0565b9050979650505050505050565b6000611eb1611ec2565b9050611ebd8282612023565b919050565b6000604051905090565b600067ffffffffffffffff821115611ee757611ee661215a565b5b611ef082612189565b9050602081019050919050565b600081519050919050565b600082825260208201905092915050565b600081905092915050565b6000611f2f82611fb8565b9150611f3a83611fb8565b9250827fffffffffffffffffffffffffffffffffffffffffffffffffffffffffffffffff03821115611f6f57611f6e6120fc565b5b828201905092915050565b6000611f8582611f98565b9050919050565b60008115159050919050565b600073ffffffffffffffffffffffffffffffffffffffff82169050919050565b6000819050919050565b600060ff82169050919050565b6000611fda82611fc2565b9050919050565b82818337600083830152505050565b60005b8381101561200e578082015181840152602081019050611ff3565b8381111561201d576000848401525b50505050565b61202c82612189565b810181811067ffffffffffffffff8211171561204b5761204a61215a565b5b80604052505050565b600061205f82611fb8565b91507fffffffffffffffffffffffffffffffffffffffffffffffffffffffffffffffff821415612092576120916120fc565b5b600182019050919050565b60006120a8826120af565b9050919050565b60006120ba8261219a565b9050919050565b6000819050919050565b60006120d682611fb8565b91506120e183611fb8565b9250826120f1576120f061212b565b5b828206905092915050565b7f4e487b7100000000000000000000000000000000000000000000000000000000600052601160045260246000fd5b7f4e487b7100000000000000000000000000000000000000000000000000000000600052601260045260246000fd5b7f4e487b7100000000000000000000000000000000000000000000000000000000600052604160045260246000fd5b6000601f19601f8301169050919050565b60008160601b9050919050565b7f596f75206e6f20746865206f776e657200000000000000000000000000000000600082015250565b7f5468697320494420616c72656164792065786973747300000000000000000000600082015250565b7f496e697469616c697a61626c653a20636f6e747261637420697320616c72656160008201527f647920696e697469616c697a6564000000000000000000000000000000000000602082015250565b7f416674657220323420686f757273000000000000000000000000000000000000600082015250565b7f446f6573206e6f74206578697374000000000000000000000000000000000000600082015250565b7f50726963652c20737175617265206e6f742063616e2062656520223022000000600082015250565b6122cc81611f7a565b81146122d757600080fd5b50565b6122e381611f8c565b81146122ee57600080fd5b50565b6122fa81611fb8565b811461230557600080fd5b5056fea26469706673582212200a5b461db04fb6f3debd403c8193a86898b6ce367113e867245a820c201f2dea64736f6c63430008040033",
  "linkReferences": {},
  "deployedLinkReferences": {}
}