{
  "_format": "hh-sol-artifact-1",
  "contractName": "HouseFactory",
  "sourceName": "contracts/HouseFactory.sol",
  "abi": [
    {
      "inputs": [],
      "name": "addrTokenHouse",
      "outputs": [
        {
          "internalType": "address",
          "name": "",
          "type": "address"
        }
      ],
      "stateMutability": "view",
      "type": "function"
    },
    {
      "inputs": [
        {
          "internalType": "uint256",
          "name": "_idHouse",
          "type": "uint256"
        },
        {
          "internalType": "uint256",
          "name": "_costETH",
          "type": "uint256"
        },
        {
          "internalType": "uint256",
          "name": "_costDAI",
          "type": "uint256"
        },
        {
          "internalType": "uint256",
          "name": "_squareHouse",
          "type": "uint256"
        },
        {
          "internalType": "address",
          "name": "_seller",
          "type": "address"
        },
        {
          "internalType": "string",
          "name": "_addressHouse",
          "type": "string"
        }
      ],
      "name": "createHouse",
      "outputs": [
        {
          "internalType": "address",
          "name": "",
          "type": "address"
        }
      ],
      "stateMutability": "nonpayable",
      "type": "function"
    },
    {
      "inputs": [
        {
          "internalType": "uint256",
          "name": "",
          "type": "uint256"
        }
      ],
      "name": "houses",
      "outputs": [
        {
          "internalType": "address",
          "name": "",
          "type": "address"
        }
      ],
      "stateMutability": "view",
      "type": "function"
    }
  ],
  "bytecode": "0x608060405234801561001057600080fd5b50613319806100206000396000f3fe60806040523480156200001157600080fd5b5060043610620000465760003560e01c8063aeda852f146200004b578063c453e7d01462000081578063f48c637a14620000b7575b600080fd5b62000069600480360381019062000063919062000304565b620000d9565b60405162000078919062000442565b60405180910390f35b6200009f600480360381019062000099919062000330565b62000119565b604051620000ae919062000442565b60405180910390f35b620000c162000232565b604051620000d0919062000442565b60405180910390f35b60018181548110620000ea57600080fd5b906000526020600020016000915054906101000a900473ffffffffffffffffffffffffffffffffffffffff1681565b600080878787878787604051620001309062000256565b62000141969594939291906200045f565b604051809103906000f0801580156200015e573d6000803e3d6000fd5b5090506001819080600181540180825580915050600190039060005260206000200160009091909190916101000a81548173ffffffffffffffffffffffffffffffffffffffff021916908373ffffffffffffffffffffffffffffffffffffffff160217905550806000806101000a81548173ffffffffffffffffffffffffffffffffffffffff021916908373ffffffffffffffffffffffffffffffffffffffff16021790555060008054906101000a900473ffffffffffffffffffffffffffffffffffffffff169150509695505050505050565b60008054906101000a900473ffffffffffffffffffffffffffffffffffffffff1681565b612c68806200067c83390190565b60006200027b6200027584620004fc565b620004d3565b9050828152602081018484840111156200029457600080fd5b620002a18482856200058c565b509392505050565b600081359050620002ba8162000647565b92915050565b600082601f830112620002d257600080fd5b8135620002e484826020860162000264565b91505092915050565b600081359050620002fe8162000661565b92915050565b6000602082840312156200031757600080fd5b60006200032784828501620002ed565b91505092915050565b60008060008060008060c087890312156200034a57600080fd5b60006200035a89828a01620002ed565b96505060206200036d89828a01620002ed565b95505060406200038089828a01620002ed565b94505060606200039389828a01620002ed565b9350506080620003a689828a01620002a9565b92505060a087013567ffffffffffffffff811115620003c457600080fd5b620003d289828a01620002c0565b9150509295509295509295565b620003ea816200054e565b82525050565b6000620003fd8262000532565b6200040981856200053d565b93506200041b8185602086016200059b565b620004268162000636565b840191505092915050565b6200043c8162000582565b82525050565b6000602082019050620004596000830184620003df565b92915050565b600060c08201905062000476600083018962000431565b62000485602083018862000431565b62000494604083018762000431565b620004a3606083018662000431565b620004b26080830185620003df565b81810360a0830152620004c68184620003f0565b9050979650505050505050565b6000620004df620004f2565b9050620004ed8282620005d1565b919050565b6000604051905090565b600067ffffffffffffffff8211156200051a576200051962000607565b5b620005258262000636565b9050602081019050919050565b600081519050919050565b600082825260208201905092915050565b60006200055b8262000562565b9050919050565b600073ffffffffffffffffffffffffffffffffffffffff82169050919050565b6000819050919050565b82818337600083830152505050565b60005b83811015620005bb5780820151818401526020810190506200059e565b83811115620005cb576000848401525b50505050565b620005dc8262000636565b810181811067ffffffffffffffff82111715620005fe57620005fd62000607565b5b80604052505050565b7f4e487b7100000000000000000000000000000000000000000000000000000000600052604160045260246000fd5b6000601f19601f8301169050919050565b62000652816200054e565b81146200065e57600080fd5b50565b6200066c8162000582565b81146200067857600080fd5b5056fe60806040523480156200001157600080fd5b5060405162002c6838038062002c68833981810160405281019062000037919062000306565b6040518060400160405280600a81526020017f486f757365546f6b656e000000000000000000000000000000000000000000008152506040518060400160405280600281526020017f48540000000000000000000000000000000000000000000000000000000000008152508160009080519060200190620000bb929190620001b6565b508060019080519060200190620000d4929190620001b6565b5050508560068190555084600781905550836008819055508260098190555081600a60006101000a81548173ffffffffffffffffffffffffffffffffffffffff021916908373ffffffffffffffffffffffffffffffffffffffff1602179055506000600b60006101000a81548173ffffffffffffffffffffffffffffffffffffffff021916908373ffffffffffffffffffffffffffffffffffffffff16021790555080600c90805190602001906200018e929190620001b6565b506001600d60006101000a81548160ff02191690831515021790555050505050505062000597565b828054620001c49062000488565b90600052602060002090601f016020900481019282620001e8576000855562000234565b82601f106200020357805160ff191683800117855562000234565b8280016001018555821562000234579182015b828111156200023357825182559160200191906001019062000216565b5b50905062000243919062000247565b5090565b5b808211156200026257600081600090555060010162000248565b5090565b60006200027d6200027784620003de565b620003b5565b9050828152602081018484840111156200029657600080fd5b620002a384828562000452565b509392505050565b600081519050620002bc8162000563565b92915050565b600082601f830112620002d457600080fd5b8151620002e684826020860162000266565b91505092915050565b60008151905062000300816200057d565b92915050565b60008060008060008060c087890312156200032057600080fd5b60006200033089828a01620002ef565b96505060206200034389828a01620002ef565b95505060406200035689828a01620002ef565b94505060606200036989828a01620002ef565b93505060806200037c89828a01620002ab565b92505060a087015167ffffffffffffffff8111156200039a57600080fd5b620003a889828a01620002c2565b9150509295509295509295565b6000620003c1620003d4565b9050620003cf8282620004be565b919050565b6000604051905090565b600067ffffffffffffffff821115620003fc57620003fb62000523565b5b620004078262000552565b9050602081019050919050565b6000620004218262000428565b9050919050565b600073ffffffffffffffffffffffffffffffffffffffff82169050919050565b6000819050919050565b60005b838110156200047257808201518184015260208101905062000455565b8381111562000482576000848401525b50505050565b60006002820490506001821680620004a157607f821691505b60208210811415620004b857620004b7620004f4565b5b50919050565b620004c98262000552565b810181811067ffffffffffffffff82111715620004eb57620004ea62000523565b5b80604052505050565b7f4e487b7100000000000000000000000000000000000000000000000000000000600052602260045260246000fd5b7f4e487b7100000000000000000000000000000000000000000000000000000000600052604160045260246000fd5b6000601f19601f8301169050919050565b6200056e8162000414565b81146200057a57600080fd5b50565b620005888162000448565b81146200059457600080fd5b50565b6126c180620005a76000396000f3fe608060405234801561001057600080fd5b506004361061014d5760003560e01c80637150d8ae116100c3578063a22cb4651161007c578063a22cb4651461037e578063a3f09ad61461039a578063b88d4fde146103b6578063c87b56dd146103d2578063e985e9c514610402578063f94ad18c146104325761014d565b80637150d8ae146102ca5780637472abf9146102e857806391db3da51461030657806395d89b41146103245780639df016aa14610342578063a1ad4447146103605761014d565b80631d76510a116101155780631d76510a1461020a57806323b872dd1461022857806342842e0e146102445780636352211e146102605780636f374a121461029057806370a082311461029a5761014d565b806301ffc9a71461015257806306fdde0314610182578063081812fc146101a057806308551a53146101d0578063095ea7b3146101ee575b600080fd5b61016c6004803603810190610167919061199b565b610450565b6040516101799190611d15565b60405180910390f35b61018a610532565b6040516101979190611d30565b60405180910390f35b6101ba60048036038101906101b591906119ed565b6105c4565b6040516101c79190611cae565b60405180910390f35b6101d8610649565b6040516101e59190611cae565b60405180910390f35b6102086004803603810190610203919061195f565b61066f565b005b610212610787565b60405161021f9190611ed2565b60405180910390f35b610242600480360381019061023d9190611859565b61078d565b005b61025e60048036038101906102599190611859565b6107ed565b005b61027a600480360381019061027591906119ed565b61080d565b6040516102879190611cae565b60405180910390f35b6102986108bf565b005b6102b460048036038101906102af91906117f4565b6108dc565b6040516102c19190611ed2565b60405180910390f35b6102d2610994565b6040516102df9190611cae565b60405180910390f35b6102f06109ba565b6040516102fd9190611d15565b60405180910390f35b61030e6109cd565b60405161031b9190611ed2565b60405180910390f35b61032c6109d3565b6040516103399190611d30565b60405180910390f35b61034a610a65565b6040516103579190611ed2565b60405180910390f35b610368610a6b565b6040516103759190611d30565b60405180910390f35b61039860048036038101906103939190611923565b610af9565b005b6103b460048036038101906103af91906117f4565b610b0f565b005b6103d060048036038101906103cb91906118a8565b610b53565b005b6103ec60048036038101906103e791906119ed565b610bb5565b6040516103f99190611d30565b60405180910390f35b61041c6004803603810190610417919061181d565b610c5c565b6040516104299190611d15565b60405180910390f35b61043a610cf0565b6040516104479190611ed2565b60405180910390f35b60007f80ac58cd000000000000000000000000000000000000000000000000000000007bffffffffffffffffffffffffffffffffffffffffffffffffffffffff1916827bffffffffffffffffffffffffffffffffffffffffffffffffffffffff1916148061051b57507f5b5e139f000000000000000000000000000000000000000000000000000000007bffffffffffffffffffffffffffffffffffffffffffffffffffffffff1916827bffffffffffffffffffffffffffffffffffffffffffffffffffffffff1916145b8061052b575061052a82610cf6565b5b9050919050565b606060008054610541906120f7565b80601f016020809104026020016040519081016040528092919081815260200182805461056d906120f7565b80156105ba5780601f1061058f576101008083540402835291602001916105ba565b820191906000526020600020905b81548152906001019060200180831161059d57829003601f168201915b5050505050905090565b60006105cf82610d60565b61060e576040517f08c379a000000000000000000000000000000000000000000000000000000000815260040161060590611e52565b60405180910390fd5b6004600083815260200190815260200160002060009054906101000a900473ffffffffffffffffffffffffffffffffffffffff169050919050565b600a60009054906101000a900473ffffffffffffffffffffffffffffffffffffffff1681565b600061067a8261080d565b90508073ffffffffffffffffffffffffffffffffffffffff168373ffffffffffffffffffffffffffffffffffffffff1614156106eb576040517f08c379a00000000000000000000000000000000000000000000000000000000081526004016106e290611e92565b60405180910390fd5b8073ffffffffffffffffffffffffffffffffffffffff1661070a610dcc565b73ffffffffffffffffffffffffffffffffffffffff161480610739575061073881610733610dcc565b610c5c565b5b610778576040517f08c379a000000000000000000000000000000000000000000000000000000000815260040161076f90611df2565b60405180910390fd5b6107828383610dd4565b505050565b60085481565b61079e610798610dcc565b82610e8d565b6107dd576040517f08c379a00000000000000000000000000000000000000000000000000000000081526004016107d490611eb2565b60405180910390fd5b6107e8838383610f6b565b505050565b61080883838360405180602001604052806000815250610b53565b505050565b6000806002600084815260200190815260200160002060009054906101000a900473ffffffffffffffffffffffffffffffffffffffff169050600073ffffffffffffffffffffffffffffffffffffffff168173ffffffffffffffffffffffffffffffffffffffff1614156108b6576040517f08c379a00000000000000000000000000000000000000000000000000000000081526004016108ad90611e32565b60405180910390fd5b80915050919050565b6000600d60006101000a81548160ff021916908315150217905550565b60008073ffffffffffffffffffffffffffffffffffffffff168273ffffffffffffffffffffffffffffffffffffffff16141561094d576040517f08c379a000000000000000000000000000000000000000000000000000000000815260040161094490611e12565b60405180910390fd5b600360008373ffffffffffffffffffffffffffffffffffffffff1673ffffffffffffffffffffffffffffffffffffffff168152602001908152602001600020549050919050565b600b60009054906101000a900473ffffffffffffffffffffffffffffffffffffffff1681565b600d60009054906101000a900460ff1681565b60075481565b6060600180546109e2906120f7565b80601f0160208091040260200160405190810160405280929190818152602001828054610a0e906120f7565b8015610a5b5780601f10610a3057610100808354040283529160200191610a5b565b820191906000526020600020905b815481529060010190602001808311610a3e57829003601f168201915b5050505050905090565b60065481565b600c8054610a78906120f7565b80601f0160208091040260200160405190810160405280929190818152602001828054610aa4906120f7565b8015610af15780601f10610ac657610100808354040283529160200191610af1565b820191906000526020600020905b815481529060010190602001808311610ad457829003601f168201915b505050505081565b610b0b610b04610dcc565b83836111d2565b5050565b80600b60006101000a81548173ffffffffffffffffffffffffffffffffffffffff021916908373ffffffffffffffffffffffffffffffffffffffff16021790555050565b610b64610b5e610dcc565b83610e8d565b610ba3576040517f08c379a0000000000000000000000000000000000000000000000000000000008152600401610b9a90611eb2565b60405180910390fd5b610baf8484848461133f565b50505050565b6060610bc082610d60565b610bff576040517f08c379a0000000000000000000000000000000000000000000000000000000008152600401610bf690611e72565b60405180910390fd5b6000610c0961139b565b90506000815111610c295760405180602001604052806000815250610c54565b80610c33846113b2565b604051602001610c44929190611c8a565b6040516020818303038152906040525b915050919050565b6000600560008473ffffffffffffffffffffffffffffffffffffffff1673ffffffffffffffffffffffffffffffffffffffff16815260200190815260200160002060008373ffffffffffffffffffffffffffffffffffffffff1673ffffffffffffffffffffffffffffffffffffffff16815260200190815260200160002060009054906101000a900460ff16905092915050565b60095481565b60007f01ffc9a7000000000000000000000000000000000000000000000000000000007bffffffffffffffffffffffffffffffffffffffffffffffffffffffff1916827bffffffffffffffffffffffffffffffffffffffffffffffffffffffff1916149050919050565b60008073ffffffffffffffffffffffffffffffffffffffff166002600084815260200190815260200160002060009054906101000a900473ffffffffffffffffffffffffffffffffffffffff1673ffffffffffffffffffffffffffffffffffffffff1614159050919050565b600033905090565b816004600083815260200190815260200160002060006101000a81548173ffffffffffffffffffffffffffffffffffffffff021916908373ffffffffffffffffffffffffffffffffffffffff160217905550808273ffffffffffffffffffffffffffffffffffffffff16610e478361080d565b73ffffffffffffffffffffffffffffffffffffffff167f8c5be1e5ebec7d5bd14f71427d1e84f3dd0314c0f7b2291e5b200ac8c7c3b92560405160405180910390a45050565b6000610e9882610d60565b610ed7576040517f08c379a0000000000000000000000000000000000000000000000000000000008152600401610ece90611dd2565b60405180910390fd5b6000610ee28361080d565b90508073ffffffffffffffffffffffffffffffffffffffff168473ffffffffffffffffffffffffffffffffffffffff161480610f245750610f238185610c5c565b5b80610f6257508373ffffffffffffffffffffffffffffffffffffffff16610f4a846105c4565b73ffffffffffffffffffffffffffffffffffffffff16145b91505092915050565b8273ffffffffffffffffffffffffffffffffffffffff16610f8b8261080d565b73ffffffffffffffffffffffffffffffffffffffff1614610fe1576040517f08c379a0000000000000000000000000000000000000000000000000000000008152600401610fd890611d72565b60405180910390fd5b600073ffffffffffffffffffffffffffffffffffffffff168273ffffffffffffffffffffffffffffffffffffffff161415611051576040517f08c379a000000000000000000000000000000000000000000000000000000000815260040161104890611d92565b60405180910390fd5b61105c83838361155f565b611067600082610dd4565b6001600360008573ffffffffffffffffffffffffffffffffffffffff1673ffffffffffffffffffffffffffffffffffffffff16815260200190815260200160002060008282546110b7919061200d565b925050819055506001600360008473ffffffffffffffffffffffffffffffffffffffff1673ffffffffffffffffffffffffffffffffffffffff168152602001908152602001600020600082825461110e9190611f86565b92505081905550816002600083815260200190815260200160002060006101000a81548173ffffffffffffffffffffffffffffffffffffffff021916908373ffffffffffffffffffffffffffffffffffffffff160217905550808273ffffffffffffffffffffffffffffffffffffffff168473ffffffffffffffffffffffffffffffffffffffff167fddf252ad1be2c89b69c2b068fc378daa952ba7f163c4a11628f55a4df523b3ef60405160405180910390a46111cd838383611564565b505050565b8173ffffffffffffffffffffffffffffffffffffffff168373ffffffffffffffffffffffffffffffffffffffff161415611241576040517f08c379a000000000000000000000000000000000000000000000000000000000815260040161123890611db2565b60405180910390fd5b80600560008573ffffffffffffffffffffffffffffffffffffffff1673ffffffffffffffffffffffffffffffffffffffff16815260200190815260200160002060008473ffffffffffffffffffffffffffffffffffffffff1673ffffffffffffffffffffffffffffffffffffffff16815260200190815260200160002060006101000a81548160ff0219169083151502179055508173ffffffffffffffffffffffffffffffffffffffff168373ffffffffffffffffffffffffffffffffffffffff167f17307eab39ab6107e8899845ad3d59bd9653f200f220920489ca2b5937696c31836040516113329190611d15565b60405180910390a3505050565b61134a848484610f6b565b61135684848484611569565b611395576040517f08c379a000000000000000000000000000000000000000000000000000000000815260040161138c90611d52565b60405180910390fd5b50505050565b606060405180602001604052806000815250905090565b606060008214156113fa576040518060400160405280600181526020017f3000000000000000000000000000000000000000000000000000000000000000815250905061155a565b600082905060005b6000821461142c5780806114159061215a565b915050600a826114259190611fdc565b9150611402565b60008167ffffffffffffffff81111561146e577f4e487b7100000000000000000000000000000000000000000000000000000000600052604160045260246000fd5b6040519080825280601f01601f1916602001820160405280156114a05781602001600182028036833780820191505090505b5090505b60008514611553576001826114b9919061200d565b9150600a856114c891906121a3565b60306114d49190611f86565b60f81b818381518110611510577f4e487b7100000000000000000000000000000000000000000000000000000000600052603260045260246000fd5b60200101907effffffffffffffffffffffffffffffffffffffffffffffffffffffffffffff1916908160001a905350600a8561154c9190611fdc565b94506114a4565b8093505050505b919050565b505050565b505050565b600061158a8473ffffffffffffffffffffffffffffffffffffffff16611700565b156116f3578373ffffffffffffffffffffffffffffffffffffffff1663150b7a026115b3610dcc565b8786866040518563ffffffff1660e01b81526004016115d59493929190611cc9565b602060405180830381600087803b1580156115ef57600080fd5b505af192505050801561162057506040513d601f19601f8201168201806040525081019061161d91906119c4565b60015b6116a3573d8060008114611650576040519150601f19603f3d011682016040523d82523d6000602084013e611655565b606091505b5060008151141561169b576040517f08c379a000000000000000000000000000000000000000000000000000000000815260040161169290611d52565b60405180910390fd5b805181602001fd5b63150b7a0260e01b7bffffffffffffffffffffffffffffffffffffffffffffffffffffffff1916817bffffffffffffffffffffffffffffffffffffffffffffffffffffffff1916149150506116f8565b600190505b949350505050565b6000808273ffffffffffffffffffffffffffffffffffffffff163b119050919050565b600061173661173184611f12565b611eed565b90508281526020810184848401111561174e57600080fd5b6117598482856120b5565b509392505050565b6000813590506117708161262f565b92915050565b60008135905061178581612646565b92915050565b60008135905061179a8161265d565b92915050565b6000815190506117af8161265d565b92915050565b600082601f8301126117c657600080fd5b81356117d6848260208601611723565b91505092915050565b6000813590506117ee81612674565b92915050565b60006020828403121561180657600080fd5b600061181484828501611761565b91505092915050565b6000806040838503121561183057600080fd5b600061183e85828601611761565b925050602061184f85828601611761565b9150509250929050565b60008060006060848603121561186e57600080fd5b600061187c86828701611761565b935050602061188d86828701611761565b925050604061189e868287016117df565b9150509250925092565b600080600080608085870312156118be57600080fd5b60006118cc87828801611761565b94505060206118dd87828801611761565b93505060406118ee878288016117df565b925050606085013567ffffffffffffffff81111561190b57600080fd5b611917878288016117b5565b91505092959194509250565b6000806040838503121561193657600080fd5b600061194485828601611761565b925050602061195585828601611776565b9150509250929050565b6000806040838503121561197257600080fd5b600061198085828601611761565b9250506020611991858286016117df565b9150509250929050565b6000602082840312156119ad57600080fd5b60006119bb8482850161178b565b91505092915050565b6000602082840312156119d657600080fd5b60006119e4848285016117a0565b91505092915050565b6000602082840312156119ff57600080fd5b6000611a0d848285016117df565b91505092915050565b611a1f81612041565b82525050565b611a2e81612053565b82525050565b6000611a3f82611f43565b611a498185611f59565b9350611a598185602086016120c4565b611a6281612290565b840191505092915050565b6000611a7882611f4e565b611a828185611f6a565b9350611a928185602086016120c4565b611a9b81612290565b840191505092915050565b6000611ab182611f4e565b611abb8185611f7b565b9350611acb8185602086016120c4565b80840191505092915050565b6000611ae4603283611f6a565b9150611aef826122a1565b604082019050919050565b6000611b07602583611f6a565b9150611b12826122f0565b604082019050919050565b6000611b2a602483611f6a565b9150611b358261233f565b604082019050919050565b6000611b4d601983611f6a565b9150611b588261238e565b602082019050919050565b6000611b70602c83611f6a565b9150611b7b826123b7565b604082019050919050565b6000611b93603883611f6a565b9150611b9e82612406565b604082019050919050565b6000611bb6602a83611f6a565b9150611bc182612455565b604082019050919050565b6000611bd9602983611f6a565b9150611be4826124a4565b604082019050919050565b6000611bfc602c83611f6a565b9150611c07826124f3565b604082019050919050565b6000611c1f602f83611f6a565b9150611c2a82612542565b604082019050919050565b6000611c42602183611f6a565b9150611c4d82612591565b604082019050919050565b6000611c65603183611f6a565b9150611c70826125e0565b604082019050919050565b611c84816120ab565b82525050565b6000611c968285611aa6565b9150611ca28284611aa6565b91508190509392505050565b6000602082019050611cc36000830184611a16565b92915050565b6000608082019050611cde6000830187611a16565b611ceb6020830186611a16565b611cf86040830185611c7b565b8181036060830152611d0a8184611a34565b905095945050505050565b6000602082019050611d2a6000830184611a25565b92915050565b60006020820190508181036000830152611d4a8184611a6d565b905092915050565b60006020820190508181036000830152611d6b81611ad7565b9050919050565b60006020820190508181036000830152611d8b81611afa565b9050919050565b60006020820190508181036000830152611dab81611b1d565b9050919050565b60006020820190508181036000830152611dcb81611b40565b9050919050565b60006020820190508181036000830152611deb81611b63565b9050919050565b60006020820190508181036000830152611e0b81611b86565b9050919050565b60006020820190508181036000830152611e2b81611ba9565b9050919050565b60006020820190508181036000830152611e4b81611bcc565b9050919050565b60006020820190508181036000830152611e6b81611bef565b9050919050565b60006020820190508181036000830152611e8b81611c12565b9050919050565b60006020820190508181036000830152611eab81611c35565b9050919050565b60006020820190508181036000830152611ecb81611c58565b9050919050565b6000602082019050611ee76000830184611c7b565b92915050565b6000611ef7611f08565b9050611f038282612129565b919050565b6000604051905090565b600067ffffffffffffffff821115611f2d57611f2c612261565b5b611f3682612290565b9050602081019050919050565b600081519050919050565b600081519050919050565b600082825260208201905092915050565b600082825260208201905092915050565b600081905092915050565b6000611f91826120ab565b9150611f9c836120ab565b9250827fffffffffffffffffffffffffffffffffffffffffffffffffffffffffffffffff03821115611fd157611fd06121d4565b5b828201905092915050565b6000611fe7826120ab565b9150611ff2836120ab565b92508261200257612001612203565b5b828204905092915050565b6000612018826120ab565b9150612023836120ab565b925082821015612036576120356121d4565b5b828203905092915050565b600061204c8261208b565b9050919050565b60008115159050919050565b60007fffffffff0000000000000000000000000000000000000000000000000000000082169050919050565b600073ffffffffffffffffffffffffffffffffffffffff82169050919050565b6000819050919050565b82818337600083830152505050565b60005b838110156120e25780820151818401526020810190506120c7565b838111156120f1576000848401525b50505050565b6000600282049050600182168061210f57607f821691505b6020821081141561212357612122612232565b5b50919050565b61213282612290565b810181811067ffffffffffffffff8211171561215157612150612261565b5b80604052505050565b6000612165826120ab565b91507fffffffffffffffffffffffffffffffffffffffffffffffffffffffffffffffff821415612198576121976121d4565b5b600182019050919050565b60006121ae826120ab565b91506121b9836120ab565b9250826121c9576121c8612203565b5b828206905092915050565b7f4e487b7100000000000000000000000000000000000000000000000000000000600052601160045260246000fd5b7f4e487b7100000000000000000000000000000000000000000000000000000000600052601260045260246000fd5b7f4e487b7100000000000000000000000000000000000000000000000000000000600052602260045260246000fd5b7f4e487b7100000000000000000000000000000000000000000000000000000000600052604160045260246000fd5b6000601f19601f8301169050919050565b7f4552433732313a207472616e7366657220746f206e6f6e20455243373231526560008201527f63656976657220696d706c656d656e7465720000000000000000000000000000602082015250565b7f4552433732313a207472616e736665722066726f6d20696e636f72726563742060008201527f6f776e6572000000000000000000000000000000000000000000000000000000602082015250565b7f4552433732313a207472616e7366657220746f20746865207a65726f2061646460008201527f7265737300000000000000000000000000000000000000000000000000000000602082015250565b7f4552433732313a20617070726f766520746f2063616c6c657200000000000000600082015250565b7f4552433732313a206f70657261746f7220717565727920666f72206e6f6e657860008201527f697374656e7420746f6b656e0000000000000000000000000000000000000000602082015250565b7f4552433732313a20617070726f76652063616c6c6572206973206e6f74206f7760008201527f6e6572206e6f7220617070726f76656420666f7220616c6c0000000000000000602082015250565b7f4552433732313a2062616c616e636520717565727920666f7220746865207a6560008201527f726f206164647265737300000000000000000000000000000000000000000000602082015250565b7f4552433732313a206f776e657220717565727920666f72206e6f6e657869737460008201527f656e7420746f6b656e0000000000000000000000000000000000000000000000602082015250565b7f4552433732313a20617070726f76656420717565727920666f72206e6f6e657860008201527f697374656e7420746f6b656e0000000000000000000000000000000000000000602082015250565b7f4552433732314d657461646174613a2055524920717565727920666f72206e6f60008201527f6e6578697374656e7420746f6b656e0000000000000000000000000000000000602082015250565b7f4552433732313a20617070726f76616c20746f2063757272656e74206f776e6560008201527f7200000000000000000000000000000000000000000000000000000000000000602082015250565b7f4552433732313a207472616e736665722063616c6c6572206973206e6f74206f60008201527f776e6572206e6f7220617070726f766564000000000000000000000000000000602082015250565b61263881612041565b811461264357600080fd5b50565b61264f81612053565b811461265a57600080fd5b50565b6126668161205f565b811461267157600080fd5b50565b61267d816120ab565b811461268857600080fd5b5056fea26469706673582212204dc04d7f99005d7f6449242929051c9c668fb415d3e76769144b46238be0e36c64736f6c63430008040033a2646970667358221220019e724cf3f563c56df1fe5971d71104fa7f18a2b722e279efb151821e23a56f64736f6c63430008040033",
  "linkReferences": {},
  "deployedLinkReferences": {}
}